{
  "contractName": "Dao",
  "abi": [
    {
      "inputs": [
        {
          "internalType": "address",
          "name": "_token",
          "type": "address"
        }
      ],
      "stateMutability": "nonpayable",
      "type": "constructor"
    },
    {
      "anonymous": false,
      "inputs": [
        {
          "indexed": false,
          "internalType": "bytes32",
          "name": "_proposalHash",
          "type": "bytes32"
        }
      ],
      "name": "Approved",
      "type": "event"
    },
    {
      "anonymous": false,
      "inputs": [
        {
          "indexed": false,
          "internalType": "bytes32",
          "name": "_proposalHash",
          "type": "bytes32"
        }
      ],
      "name": "Rejected",
      "type": "event"
    },
    {
      "anonymous": false,
      "inputs": [
        {
          "indexed": false,
          "internalType": "address",
          "name": "_account",
          "type": "address"
        },
        {
          "indexed": false,
          "internalType": "enum DaoInterface.Vote",
          "name": "vote",
          "type": "uint8"
        }
      ],
      "name": "VoteEvent",
      "type": "event"
    },
    {
      "inputs": [
        {
          "internalType": "bytes32",
          "name": "",
          "type": "bytes32"
        }
      ],
      "name": "proposals",
      "outputs": [
        {
          "internalType": "address",
          "name": "creator",
          "type": "address"
        },
        {
          "internalType": "bytes32",
          "name": "docHash",
          "type": "bytes32"
        },
        {
          "internalType": "uint256",
          "name": "creationTimestamp",
          "type": "uint256"
        },
        {
          "internalType": "uint256",
          "name": "yea",
          "type": "uint256"
        },
        {
          "internalType": "uint256",
          "name": "nay",
          "type": "uint256"
        },
        {
          "internalType": "enum DaoInterface.Status",
          "name": "status",
          "type": "uint8"
        }
      ],
      "stateMutability": "view",
      "type": "function",
      "constant": true
    },
    {
      "inputs": [
        {
          "internalType": "address",
          "name": "",
          "type": "address"
        }
      ],
      "name": "shares",
      "outputs": [
        {
          "internalType": "uint256",
          "name": "",
          "type": "uint256"
        }
      ],
      "stateMutability": "view",
      "type": "function",
      "constant": true
    },
    {
      "inputs": [],
      "name": "token",
      "outputs": [
        {
          "internalType": "contract IERC20",
          "name": "",
          "type": "address"
        }
      ],
      "stateMutability": "view",
      "type": "function",
      "constant": true
    },
    {
      "inputs": [],
      "name": "totalShares",
      "outputs": [
        {
          "internalType": "uint256",
          "name": "",
          "type": "uint256"
        }
      ],
      "stateMutability": "view",
      "type": "function",
      "constant": true
    },
    {
      "inputs": [
        {
          "internalType": "address",
          "name": "",
          "type": "address"
        },
        {
          "internalType": "bytes32",
          "name": "",
          "type": "bytes32"
        }
      ],
      "name": "voted",
      "outputs": [
        {
          "internalType": "bool",
          "name": "",
          "type": "bool"
        }
      ],
      "stateMutability": "view",
      "type": "function",
      "constant": true
    },
    {
      "inputs": [
        {
          "internalType": "uint256",
          "name": "_amount",
          "type": "uint256"
        }
      ],
      "name": "deposit",
      "outputs": [],
      "stateMutability": "nonpayable",
      "type": "function"
    },
    {
      "inputs": [
        {
          "internalType": "uint256",
          "name": "_amount",
          "type": "uint256"
        }
      ],
      "name": "withdraw",
      "outputs": [],
      "stateMutability": "nonpayable",
      "type": "function"
    },
    {
      "inputs": [
        {
          "internalType": "bytes32",
          "name": "_proposalHash",
          "type": "bytes32"
        }
      ],
      "name": "newProposal",
      "outputs": [],
      "stateMutability": "nonpayable",
      "type": "function"
    },
    {
      "inputs": [
        {
          "internalType": "bytes32",
          "name": "_proposalHash",
          "type": "bytes32"
        },
        {
          "internalType": "enum DaoInterface.Vote",
          "name": "_vote",
          "type": "uint8"
        }
      ],
      "name": "vote",
      "outputs": [],
      "stateMutability": "nonpayable",
      "type": "function"
    }
  ],
  "bytecode": "0x60806040523480156200001157600080fd5b50604051620014d9380380620014d9833981810160405281019062000037919062000095565b806000806101000a81548173ffffffffffffffffffffffffffffffffffffffff021916908373ffffffffffffffffffffffffffffffffffffffff160217905550506200010f565b6000815190506200008f81620000f5565b92915050565b600060208284031215620000a857600080fd5b6000620000b8848285016200007e565b91505092915050565b6000620000ce82620000d5565b9050919050565b600073ffffffffffffffffffffffffffffffffffffffff82169050919050565b6200010081620000c1565b81146200010c57600080fd5b50565b6113ba806200011f6000396000f3fe608060405234801561001057600080fd5b50600436106100935760003560e01c8063ac50af5f11610066578063ac50af5f14610137578063b6b55f2514610153578063c9a28cb91461016f578063ce7c2ac21461018b578063fc0c546a146101bb57610093565b80632e1a7d4d1461009857806332ed5b12146100b45780633a98ef39146100e9578063abb7a0df14610107575b600080fd5b6100b260048036038101906100ad9190610ce5565b6101d9565b005b6100ce60048036038101906100c99190610c80565b61037d565b6040516100e096959493929190610e3a565b60405180910390f35b6100f16103e6565b6040516100fe9190610fbe565b60405180910390f35b610121600480360381019061011c9190610c1b565b6103ec565b60405161012e9190610eed565b60405180910390f35b610151600480360381019061014c9190610c80565b61041b565b005b61016d60048036038101906101689190610ce5565b6105d4565b005b61018960048036038101906101849190610ca9565b6106f6565b005b6101a560048036038101906101a09190610bf2565b610b4d565b6040516101b29190610fbe565b60405180910390f35b6101c3610b65565b6040516101d09190610f23565b60405180910390f35b8080600460003373ffffffffffffffffffffffffffffffffffffffff1673ffffffffffffffffffffffffffffffffffffffff16815260200190815260200160002054101561025c576040517f08c379a000000000000000000000000000000000000000000000000000000000815260040161025390610f5e565b60405180910390fd5b81600460003373ffffffffffffffffffffffffffffffffffffffff1673ffffffffffffffffffffffffffffffffffffffff16815260200190815260200160002060008282546102ab91906110cb565b9250508190555081600160008282546102c491906110cb565b9250508190555060008054906101000a900473ffffffffffffffffffffffffffffffffffffffff1673ffffffffffffffffffffffffffffffffffffffff1663a9059cbb33846040518363ffffffff1660e01b8152600401610326929190610ec4565b602060405180830381600087803b15801561034057600080fd5b505af1158015610354573d6000803e3d6000fd5b505050506040513d601f19601f820116820180604052508101906103789190610c57565b505050565b60026020528060005260406000206000915090508060000160009054906101000a900473ffffffffffffffffffffffffffffffffffffffff16908060010154908060020154908060030154908060040154908060050160009054906101000a900460ff16905086565b60015481565b60036020528160005260406000206020528060005260406000206000915091509054906101000a900460ff1681565b806000801b600260008381526020019081526020016000206001015414610477576040517f08c379a000000000000000000000000000000000000000000000000000000000815260040161046e90610f3e565b60405180910390fd5b6040518060c001604052803373ffffffffffffffffffffffffffffffffffffffff1681526020018381526020014281526020016000815260200160008152602001600060028111156104f2577f4e487b7100000000000000000000000000000000000000000000000000000000600052602160045260246000fd5b8152506002600084815260200190815260200160002060008201518160000160006101000a81548173ffffffffffffffffffffffffffffffffffffffff021916908373ffffffffffffffffffffffffffffffffffffffff1602179055506020820151816001015560408201518160020155606082015181600301556080820151816004015560a08201518160050160006101000a81548160ff021916908360028111156105c8577f4e487b7100000000000000000000000000000000000000000000000000000000600052602160045260246000fd5b02179055509050505050565b80600460003373ffffffffffffffffffffffffffffffffffffffff1673ffffffffffffffffffffffffffffffffffffffff16815260200190815260200160002060008282546106239190610fea565b92505081905550806001600082825461063c9190610fea565b9250508190555060008054906101000a900473ffffffffffffffffffffffffffffffffffffffff1673ffffffffffffffffffffffffffffffffffffffff166323b872dd3330846040518463ffffffff1660e01b81526004016106a093929190610e03565b602060405180830381600087803b1580156106ba57600080fd5b505af11580156106ce573d6000803e3d6000fd5b505050506040513d601f19601f820116820180604052508101906106f29190610c57565b5050565b8160001515600360003373ffffffffffffffffffffffffffffffffffffffff1673ffffffffffffffffffffffffffffffffffffffff168152602001908152602001600020600083815260200190815260200160002060009054906101000a900460ff1615151461079b576040517f08c379a000000000000000000000000000000000000000000000000000000000815260040161079290610f7e565b60405180910390fd5b826000801b600260008381526020019081526020016000206001015414156107f8576040517f08c379a00000000000000000000000000000000000000000000000000000000081526004016107ef90610f9e565b60405180910390fd5b60006002600086815260200190815260200160002090506001600360003373ffffffffffffffffffffffffffffffffffffffff1673ffffffffffffffffffffffffffffffffffffffff168152602001908152602001600020600087815260200190815260200160002060006101000a81548160ff021916908315150217905550600060018111156108b2577f4e487b7100000000000000000000000000000000000000000000000000000000600052602160045260246000fd5b8460018111156108eb577f4e487b7100000000000000000000000000000000000000000000000000000000600052602160045260246000fd5b1415610a3a57600460003373ffffffffffffffffffffffffffffffffffffffff1673ffffffffffffffffffffffffffffffffffffffff168152602001908152602001600020548160030160008282546109449190610fea565b925050819055507fb14236643441ae89f4e8db470337cc30657235a1e93464e4c0f919487f9af0e2338560405161097c929190610e9b565b60405180910390a1603c6001546064836003015461099a9190611071565b6109a49190611040565b1115610a355760018160050160006101000a81548160ff021916908360028111156109f8577f4e487b7100000000000000000000000000000000000000000000000000000000600052602160045260246000fd5b02179055507f6fb7fd1eda743aa3eb32c69f3b8cf14a5aeadf26db51057a7c5c78ba10eac8a485604051610a2c9190610f08565b60405180910390a15b610b46565b600460003373ffffffffffffffffffffffffffffffffffffffff1673ffffffffffffffffffffffffffffffffffffffff16815260200190815260200160002054816004016000828254610a8d9190610fea565b92505081905550603c60015460648360040154610aaa9190611071565b610ab49190611040565b1115610b455760028160050160006101000a81548160ff02191690836002811115610b08577f4e487b7100000000000000000000000000000000000000000000000000000000600052602160045260246000fd5b02179055507f757741f2bf61fcf95e7d0ac6b76eac0f6ce0c3c3a16636385a74a9436d5d1aa985604051610b3c9190610f08565b60405180910390a15b5b5050505050565b60046020528060005260406000206000915090505481565b60008054906101000a900473ffffffffffffffffffffffffffffffffffffffff1681565b600081359050610b9881611318565b92915050565b600081519050610bad8161132f565b92915050565b600081359050610bc281611346565b92915050565b600081359050610bd78161135d565b92915050565b600081359050610bec8161136d565b92915050565b600060208284031215610c0457600080fd5b6000610c1284828501610b89565b91505092915050565b60008060408385031215610c2e57600080fd5b6000610c3c85828601610b89565b9250506020610c4d85828601610bb3565b9150509250929050565b600060208284031215610c6957600080fd5b6000610c7784828501610b9e565b91505092915050565b600060208284031215610c9257600080fd5b6000610ca084828501610bb3565b91505092915050565b60008060408385031215610cbc57600080fd5b6000610cca85828601610bb3565b9250506020610cdb85828601610bc8565b9150509250929050565b600060208284031215610cf757600080fd5b6000610d0584828501610bdd565b91505092915050565b610d17816110ff565b82525050565b610d2681611111565b82525050565b610d358161111d565b82525050565b610d4481611177565b82525050565b610d538161119b565b82525050565b610d62816111ad565b82525050565b6000610d75601b83610fd9565b9150610d808261124c565b602082019050919050565b6000610d98601183610fd9565b9150610da382611275565b602082019050919050565b6000610dbb600d83610fd9565b9150610dc68261129e565b602082019050919050565b6000610dde601c83610fd9565b9150610de9826112c7565b602082019050919050565b610dfd8161116d565b82525050565b6000606082019050610e186000830186610d0e565b610e256020830185610d0e565b610e326040830184610df4565b949350505050565b600060c082019050610e4f6000830189610d0e565b610e5c6020830188610d2c565b610e696040830187610df4565b610e766060830186610df4565b610e836080830185610df4565b610e9060a0830184610d4a565b979650505050505050565b6000604082019050610eb06000830185610d0e565b610ebd6020830184610d59565b9392505050565b6000604082019050610ed96000830185610d0e565b610ee66020830184610df4565b9392505050565b6000602082019050610f026000830184610d1d565b92915050565b6000602082019050610f1d6000830184610d2c565b92915050565b6000602082019050610f386000830184610d3b565b92915050565b60006020820190508181036000830152610f5781610d68565b9050919050565b60006020820190508181036000830152610f7781610d8b565b9050919050565b60006020820190508181036000830152610f9781610dae565b9050919050565b60006020820190508181036000830152610fb781610dd1565b9050919050565b6000602082019050610fd36000830184610df4565b92915050565b600082825260208201905092915050565b6000610ff58261116d565b91506110008361116d565b9250827fffffffffffffffffffffffffffffffffffffffffffffffffffffffffffffffff03821115611035576110346111bf565b5b828201905092915050565b600061104b8261116d565b91506110568361116d565b925082611066576110656111ee565b5b828204905092915050565b600061107c8261116d565b91506110878361116d565b9250817fffffffffffffffffffffffffffffffffffffffffffffffffffffffffffffffff04831182151516156110c0576110bf6111bf565b5b828202905092915050565b60006110d68261116d565b91506110e18361116d565b9250828210156110f4576110f36111bf565b5b828203905092915050565b600061110a8261114d565b9050919050565b60008115159050919050565b6000819050919050565b6000819050611135826112f0565b919050565b600081905061114882611304565b919050565b600073ffffffffffffffffffffffffffffffffffffffff82169050919050565b6000819050919050565b600061118282611189565b9050919050565b60006111948261114d565b9050919050565b60006111a682611127565b9050919050565b60006111b88261113a565b9050919050565b7f4e487b7100000000000000000000000000000000000000000000000000000000600052601160045260246000fd5b7f4e487b7100000000000000000000000000000000000000000000000000000000600052601260045260246000fd5b7f4e487b7100000000000000000000000000000000000000000000000000000000600052602160045260246000fd5b7f746869732070726f706f73616c20616c72656164792065786973740000000000600082015250565b7f6e6f7420656e6f75676820736861726573000000000000000000000000000000600082015250565b7f616c726561647920766f74656400000000000000000000000000000000000000600082015250565b7f746869732070726f706f73616c20646f6573206e6f7420657869737400000000600082015250565b600381106113015761130061121d565b5b50565b600281106113155761131461121d565b5b50565b611321816110ff565b811461132c57600080fd5b50565b61133881611111565b811461134357600080fd5b50565b61134f8161111d565b811461135a57600080fd5b50565b6002811061136a57600080fd5b50565b6113768161116d565b811461138157600080fd5b5056fea2646970667358221220357ffe4aeab817cb3a90f6d064894f5fc33792bd5b6f704ac81dd0cec3d4e77164736f6c63430008040033",
  "immutableReferences": {},
  "source": "pragma solidity 0.8.4;\n\nimport \"@openzeppelin/contracts/token/ERC20/IERC20.sol\";\n\ninterface DaoInterface {\n    enum Vote {Yes, No}\n    enum Status {Pending, Approved, Rejected}\n\n    struct Proposal {\n        address creator;\n        bytes32 docHash;\n        uint256 creationTimestamp;\n        uint256 yea;\n        uint256 nay;\n        Status status;\n    }\n\n    function deposit(uint256 _amount) external;\n\n    function withdraw(uint256 _amount) external;\n\n    function newProposal(bytes32 _proposalHash) external;\n\n    function vote(bytes32 _proposalHash, Vote _vote) external;\n\n    event Approved(bytes32 _proposalHash);\n    event Rejected(bytes32 _proposalHash);\n    event VoteEvent(address _account, Vote vote);\n}\n\ncontract Dao is DaoInterface {\n    IERC20 public token;\n    uint256 public totalShares;\n    uint256 constant quorumPeriod = 1 weeks;\n    uint256 constant quorumPercentage = 60;\n\n    mapping(bytes32 => Proposal) public proposals;\n    mapping(address => mapping(bytes32 => bool)) public voted;\n    mapping(address => uint256) public shares;\n\n    constructor(address _token) {\n        token = IERC20(_token);\n    }\n\n    // Modifiers\n    modifier proposalNotExists(bytes32 _proposalHash) {\n        require(\n            proposals[_proposalHash].docHash == bytes32(0),\n            \"this proposal already exist\"\n        );\n        _;\n    }\n\n    modifier proposalExists(bytes32 _proposalHash) {\n        require(\n            proposals[_proposalHash].docHash != bytes32(0),\n            \"this proposal does not exist\"\n        );\n        _;\n    }\n\n    modifier accountHasEnoughShares(uint256 _amount) {\n        require(shares[msg.sender] >= _amount, \"not enough shares\");\n        _;\n    }\n\n    modifier accountNotVoted(bytes32 _proposalHash) {\n        require(voted[msg.sender][_proposalHash] == false, \"already voted\");\n        _;\n    }\n\n    modifier inVotingPeriod(bytes32 _proposalHash) {\n        require(\n            block.timestamp <=\n                proposals[_proposalHash].creationTimestamp + quorumPeriod,\n            \"voting period over\"\n        );\n        _;\n    }\n\n    // Functions\n    function deposit(uint256 _amount) external override {\n        shares[msg.sender] += _amount;\n        totalShares += _amount;\n        token.transferFrom(msg.sender, address(this), _amount);\n    }\n\n    function withdraw(uint256 _amount)\n        external\n        override\n        accountHasEnoughShares(_amount)\n    {\n        shares[msg.sender] -= _amount;\n        totalShares -= _amount;\n        token.transfer(msg.sender, _amount);\n    }\n\n    function newProposal(bytes32 _proposalHash)\n        external\n        override\n        proposalNotExists(_proposalHash)\n    {\n        proposals[_proposalHash] = Proposal(\n            msg.sender,\n            _proposalHash,\n            block.timestamp,\n            0,\n            0,\n            Status.Pending\n        );\n    }\n\n    function vote(bytes32 _proposalHash, Vote _vote)\n        external\n        override\n        accountNotVoted(_proposalHash)\n        proposalExists(_proposalHash)\n    {\n        Proposal storage proposal = proposals[_proposalHash];\n\n        voted[msg.sender][_proposalHash] = true;\n        if (_vote == Vote.Yes) {\n            proposal.yea += shares[msg.sender];\n            emit VoteEvent(msg.sender, _vote);\n\n            if ((proposal.yea * 100) / totalShares > quorumPercentage) {\n                proposal.status = Status.Approved;\n                emit Approved(_proposalHash);\n            }\n        } else {\n            proposal.nay += shares[msg.sender];\n            if ((proposal.nay * 100) / totalShares > quorumPercentage) {\n                proposal.status = Status.Rejected;\n                emit Rejected(_proposalHash);\n            }\n        }\n    }\n}\n",
  "sourcePath": "/Users/mertozgun/dev/m2ozgun/dao/contracts/Dao.sol",
  "compiler": {
    "name": "solc",
    "version": "0.8.4+commit.c7e474f2.Emscripten.clang"
  },
  "schemaVersion": "3.4.0",
  "updatedAt": "2021-05-10T04:13:08.892Z",
  "networkType": "ethereum",
  "devdoc": {
    "kind": "dev",
    "methods": {},
    "version": 1
  },
  "userdoc": {
    "kind": "user",
    "methods": {},
    "version": 1
  }
}