{
  "contractName": "Dao",
  "abi": [
    {
      "inputs": [
        {
          "internalType": "address",
          "name": "_token",
          "type": "address"
        }
      ],
      "stateMutability": "nonpayable",
      "type": "constructor"
    },
    {
      "anonymous": false,
      "inputs": [
        {
          "indexed": false,
          "internalType": "bytes32",
          "name": "_proposalHash",
          "type": "bytes32"
        }
      ],
      "name": "Approved",
      "type": "event"
    },
    {
      "anonymous": false,
      "inputs": [
        {
          "indexed": false,
          "internalType": "bytes32",
          "name": "_proposalHash",
          "type": "bytes32"
        }
      ],
      "name": "Rejected",
      "type": "event"
    },
    {
      "anonymous": false,
      "inputs": [
        {
          "indexed": false,
          "internalType": "address",
          "name": "_account",
          "type": "address"
        },
        {
          "indexed": false,
          "internalType": "enum DaoInterface.Vote",
          "name": "vote",
          "type": "uint8"
        }
      ],
      "name": "VoteEvent",
      "type": "event"
    },
    {
      "inputs": [
        {
          "internalType": "bytes32",
          "name": "",
          "type": "bytes32"
        }
      ],
      "name": "proposals",
      "outputs": [
        {
          "internalType": "address",
          "name": "creator",
          "type": "address"
        },
        {
          "internalType": "bytes32",
          "name": "docHash",
          "type": "bytes32"
        },
        {
          "internalType": "uint256",
          "name": "creationTimestamp",
          "type": "uint256"
        },
        {
          "internalType": "uint256",
          "name": "yea",
          "type": "uint256"
        },
        {
          "internalType": "uint256",
          "name": "nay",
          "type": "uint256"
        },
        {
          "internalType": "enum DaoInterface.Status",
          "name": "status",
          "type": "uint8"
        }
      ],
      "stateMutability": "view",
      "type": "function",
      "constant": true
    },
    {
      "inputs": [
        {
          "internalType": "address",
          "name": "",
          "type": "address"
        }
      ],
      "name": "shares",
      "outputs": [
        {
          "internalType": "uint256",
          "name": "",
          "type": "uint256"
        }
      ],
      "stateMutability": "view",
      "type": "function",
      "constant": true
    },
    {
      "inputs": [],
      "name": "token",
      "outputs": [
        {
          "internalType": "contract IERC20",
          "name": "",
          "type": "address"
        }
      ],
      "stateMutability": "view",
      "type": "function",
      "constant": true
    },
    {
      "inputs": [],
      "name": "totalShares",
      "outputs": [
        {
          "internalType": "uint256",
          "name": "",
          "type": "uint256"
        }
      ],
      "stateMutability": "view",
      "type": "function",
      "constant": true
    },
    {
      "inputs": [
        {
          "internalType": "address",
          "name": "",
          "type": "address"
        },
        {
          "internalType": "bytes32",
          "name": "",
          "type": "bytes32"
        }
      ],
      "name": "voted",
      "outputs": [
        {
          "internalType": "bool",
          "name": "",
          "type": "bool"
        }
      ],
      "stateMutability": "view",
      "type": "function",
      "constant": true
    },
    {
      "inputs": [
        {
          "internalType": "uint256",
          "name": "_amount",
          "type": "uint256"
        }
      ],
      "name": "deposit",
      "outputs": [],
      "stateMutability": "nonpayable",
      "type": "function"
    },
    {
      "inputs": [
        {
          "internalType": "uint256",
          "name": "_amount",
          "type": "uint256"
        }
      ],
      "name": "withdraw",
      "outputs": [],
      "stateMutability": "nonpayable",
      "type": "function"
    },
    {
      "inputs": [
        {
          "internalType": "bytes32",
          "name": "_proposalHash",
          "type": "bytes32"
        }
      ],
      "name": "newProposal",
      "outputs": [],
      "stateMutability": "nonpayable",
      "type": "function"
    },
    {
      "inputs": [
        {
          "internalType": "bytes32",
          "name": "_proposalHash",
          "type": "bytes32"
        },
        {
          "internalType": "enum DaoInterface.Vote",
          "name": "_vote",
          "type": "uint8"
        }
      ],
      "name": "vote",
      "outputs": [],
      "stateMutability": "nonpayable",
      "type": "function"
    },
    {
      "inputs": [],
      "name": "getProposalHashes",
      "outputs": [
        {
          "internalType": "bytes32[]",
          "name": "",
          "type": "bytes32[]"
        }
      ],
      "stateMutability": "view",
      "type": "function",
      "constant": true
    },
    {
      "inputs": [],
      "name": "getProposalCount",
      "outputs": [
        {
          "internalType": "uint256",
          "name": "",
          "type": "uint256"
        }
      ],
      "stateMutability": "view",
      "type": "function",
      "constant": true
    },
    {
      "inputs": [
        {
          "internalType": "bytes32",
          "name": "_proposalHash",
          "type": "bytes32"
        }
      ],
      "name": "getProposal",
      "outputs": [
        {
          "internalType": "address",
          "name": "creator",
          "type": "address"
        },
        {
          "internalType": "bytes32",
          "name": "docHash",
          "type": "bytes32"
        },
        {
          "internalType": "uint256",
          "name": "creationTimestamp",
          "type": "uint256"
        },
        {
          "internalType": "uint256",
          "name": "yea",
          "type": "uint256"
        },
        {
          "internalType": "uint256",
          "name": "nay",
          "type": "uint256"
        },
        {
          "internalType": "enum DaoInterface.Status",
          "name": "status",
          "type": "uint8"
        }
      ],
      "stateMutability": "view",
      "type": "function",
      "constant": true
    }
  ],
  "bytecode": "0x60806040523480156200001157600080fd5b506040516200175a3803806200175a833981810160405281019062000037919062000095565b806000806101000a81548173ffffffffffffffffffffffffffffffffffffffff021916908373ffffffffffffffffffffffffffffffffffffffff160217905550506200010f565b6000815190506200008f81620000f5565b92915050565b600060208284031215620000a857600080fd5b6000620000b8848285016200007e565b91505092915050565b6000620000ce82620000d5565b9050919050565b600073ffffffffffffffffffffffffffffffffffffffff82169050919050565b6200010081620000c1565b81146200010c57600080fd5b50565b61163b806200011f6000396000f3fe608060405234801561001057600080fd5b50600436106100b45760003560e01c8063b6b55f2511610071578063b6b55f25146101a9578063c08cc02d146101c5578063c9a28cb9146101e3578063ce7c2ac2146101ff578063d808cf621461022f578063fc0c546a1461024d576100b4565b80632e1a7d4d146100b957806332ed5b12146100d55780633a98ef391461010a578063430694cf14610128578063abb7a0df1461015d578063ac50af5f1461018d575b600080fd5b6100d360048036038101906100ce9190610e86565b61026b565b005b6100ef60048036038101906100ea9190610e21565b61040f565b60405161010196959493929190611060565b60405180910390f35b610112610478565b60405161011f9190611206565b60405180910390f35b610142600480360381019061013d9190610e21565b61047e565b60405161015496959493929190611060565b60405180910390f35b61017760048036038101906101729190610dbc565b6104ff565b6040516101849190611135565b60405180910390f35b6101a760048036038101906101a29190610e21565b61052e565b005b6101c360048036038101906101be9190610e86565b610710565b005b6101cd610832565b6040516101da9190611206565b60405180910390f35b6101fd60048036038101906101f89190610e4a565b61083f565b005b61021960048036038101906102149190610d93565b610c96565b6040516102269190611206565b60405180910390f35b610237610cae565b6040516102449190611113565b60405180910390f35b610255610d06565b604051610262919061116b565b60405180910390f35b8080600560003373ffffffffffffffffffffffffffffffffffffffff1673ffffffffffffffffffffffffffffffffffffffff1681526020019081526020016000205410156102ee576040517f08c379a00000000000000000000000000000000000000000000000000000000081526004016102e5906111a6565b60405180910390fd5b81600560003373ffffffffffffffffffffffffffffffffffffffff1673ffffffffffffffffffffffffffffffffffffffff168152602001908152602001600020600082825461033d919061134c565b925050819055508160016000828254610356919061134c565b9250508190555060008054906101000a900473ffffffffffffffffffffffffffffffffffffffff1673ffffffffffffffffffffffffffffffffffffffff1663a9059cbb33846040518363ffffffff1660e01b81526004016103b89291906110ea565b602060405180830381600087803b1580156103d257600080fd5b505af11580156103e6573d6000803e3d6000fd5b505050506040513d601f19601f8201168201806040525081019061040a9190610df8565b505050565b60026020528060005260406000206000915090508060000160009054906101000a900473ffffffffffffffffffffffffffffffffffffffff16908060010154908060020154908060030154908060040154908060050160009054906101000a900460ff16905086565b60015481565b60008060008060008060006002600089815260200190815260200160002090508060000160009054906101000a900473ffffffffffffffffffffffffffffffffffffffff1681600101548260020154836003015484600401548560050160009054906101000a900460ff169650965096509650965096505091939550919395565b60046020528160005260406000206020528060005260406000206000915091509054906101000a900460ff1681565b806000801b60026000838152602001908152602001600020600101541461058a576040517f08c379a000000000000000000000000000000000000000000000000000000000815260040161058190611186565b60405180910390fd5b60038290806001815401808255809150506001900390600052602060002001600090919091909150556040518060c001604052803373ffffffffffffffffffffffffffffffffffffffff16815260200183815260200142815260200160008152602001600081526020016000600281111561062e577f4e487b7100000000000000000000000000000000000000000000000000000000600052602160045260246000fd5b8152506002600084815260200190815260200160002060008201518160000160006101000a81548173ffffffffffffffffffffffffffffffffffffffff021916908373ffffffffffffffffffffffffffffffffffffffff1602179055506020820151816001015560408201518160020155606082015181600301556080820151816004015560a08201518160050160006101000a81548160ff02191690836002811115610704577f4e487b7100000000000000000000000000000000000000000000000000000000600052602160045260246000fd5b02179055509050505050565b80600560003373ffffffffffffffffffffffffffffffffffffffff1673ffffffffffffffffffffffffffffffffffffffff168152602001908152602001600020600082825461075f919061126b565b925050819055508060016000828254610778919061126b565b9250508190555060008054906101000a900473ffffffffffffffffffffffffffffffffffffffff1673ffffffffffffffffffffffffffffffffffffffff166323b872dd3330846040518463ffffffff1660e01b81526004016107dc93929190611029565b602060405180830381600087803b1580156107f657600080fd5b505af115801561080a573d6000803e3d6000fd5b505050506040513d601f19601f8201168201806040525081019061082e9190610df8565b5050565b6000600380549050905090565b8160001515600460003373ffffffffffffffffffffffffffffffffffffffff1673ffffffffffffffffffffffffffffffffffffffff168152602001908152602001600020600083815260200190815260200160002060009054906101000a900460ff161515146108e4576040517f08c379a00000000000000000000000000000000000000000000000000000000081526004016108db906111c6565b60405180910390fd5b826000801b60026000838152602001908152602001600020600101541415610941576040517f08c379a0000000000000000000000000000000000000000000000000000000008152600401610938906111e6565b60405180910390fd5b60006002600086815260200190815260200160002090506001600460003373ffffffffffffffffffffffffffffffffffffffff1673ffffffffffffffffffffffffffffffffffffffff168152602001908152602001600020600087815260200190815260200160002060006101000a81548160ff021916908315150217905550600060018111156109fb577f4e487b7100000000000000000000000000000000000000000000000000000000600052602160045260246000fd5b846001811115610a34577f4e487b7100000000000000000000000000000000000000000000000000000000600052602160045260246000fd5b1415610b8357600560003373ffffffffffffffffffffffffffffffffffffffff1673ffffffffffffffffffffffffffffffffffffffff16815260200190815260200160002054816003016000828254610a8d919061126b565b925050819055507fb14236643441ae89f4e8db470337cc30657235a1e93464e4c0f919487f9af0e23385604051610ac59291906110c1565b60405180910390a1603c60015460648360030154610ae391906112f2565b610aed91906112c1565b1115610b7e5760018160050160006101000a81548160ff02191690836002811115610b41577f4e487b7100000000000000000000000000000000000000000000000000000000600052602160045260246000fd5b02179055507f6fb7fd1eda743aa3eb32c69f3b8cf14a5aeadf26db51057a7c5c78ba10eac8a485604051610b759190611150565b60405180910390a15b610c8f565b600560003373ffffffffffffffffffffffffffffffffffffffff1673ffffffffffffffffffffffffffffffffffffffff16815260200190815260200160002054816004016000828254610bd6919061126b565b92505081905550603c60015460648360040154610bf391906112f2565b610bfd91906112c1565b1115610c8e5760028160050160006101000a81548160ff02191690836002811115610c51577f4e487b7100000000000000000000000000000000000000000000000000000000600052602160045260246000fd5b02179055507f757741f2bf61fcf95e7d0ac6b76eac0f6ce0c3c3a16636385a74a9436d5d1aa985604051610c859190611150565b60405180910390a15b5b5050505050565b60056020528060005260406000206000915090505481565b60606003805480602002602001604051908101604052809291908181526020018280548015610cfc57602002820191906000526020600020905b815481526020019060010190808311610ce8575b5050505050905090565b60008054906101000a900473ffffffffffffffffffffffffffffffffffffffff1681565b600081359050610d3981611599565b92915050565b600081519050610d4e816115b0565b92915050565b600081359050610d63816115c7565b92915050565b600081359050610d78816115de565b92915050565b600081359050610d8d816115ee565b92915050565b600060208284031215610da557600080fd5b6000610db384828501610d2a565b91505092915050565b60008060408385031215610dcf57600080fd5b6000610ddd85828601610d2a565b9250506020610dee85828601610d54565b9150509250929050565b600060208284031215610e0a57600080fd5b6000610e1884828501610d3f565b91505092915050565b600060208284031215610e3357600080fd5b6000610e4184828501610d54565b91505092915050565b60008060408385031215610e5d57600080fd5b6000610e6b85828601610d54565b9250506020610e7c85828601610d69565b9150509250929050565b600060208284031215610e9857600080fd5b6000610ea684828501610d7e565b91505092915050565b6000610ebb8383610f43565b60208301905092915050565b610ed081611380565b82525050565b6000610ee182611231565b610eeb8185611249565b9350610ef683611221565b8060005b83811015610f27578151610f0e8882610eaf565b9750610f198361123c565b925050600181019050610efa565b5085935050505092915050565b610f3d81611392565b82525050565b610f4c8161139e565b82525050565b610f5b8161139e565b82525050565b610f6a816113f8565b82525050565b610f798161141c565b82525050565b610f888161142e565b82525050565b6000610f9b601b8361125a565b9150610fa6826114cd565b602082019050919050565b6000610fbe60118361125a565b9150610fc9826114f6565b602082019050919050565b6000610fe1600d8361125a565b9150610fec8261151f565b602082019050919050565b6000611004601c8361125a565b915061100f82611548565b602082019050919050565b611023816113ee565b82525050565b600060608201905061103e6000830186610ec7565b61104b6020830185610ec7565b611058604083018461101a565b949350505050565b600060c0820190506110756000830189610ec7565b6110826020830188610f52565b61108f604083018761101a565b61109c606083018661101a565b6110a9608083018561101a565b6110b660a0830184610f70565b979650505050505050565b60006040820190506110d66000830185610ec7565b6110e36020830184610f7f565b9392505050565b60006040820190506110ff6000830185610ec7565b61110c602083018461101a565b9392505050565b6000602082019050818103600083015261112d8184610ed6565b905092915050565b600060208201905061114a6000830184610f34565b92915050565b60006020820190506111656000830184610f52565b92915050565b60006020820190506111806000830184610f61565b92915050565b6000602082019050818103600083015261119f81610f8e565b9050919050565b600060208201905081810360008301526111bf81610fb1565b9050919050565b600060208201905081810360008301526111df81610fd4565b9050919050565b600060208201905081810360008301526111ff81610ff7565b9050919050565b600060208201905061121b600083018461101a565b92915050565b6000819050602082019050919050565b600081519050919050565b6000602082019050919050565b600082825260208201905092915050565b600082825260208201905092915050565b6000611276826113ee565b9150611281836113ee565b9250827fffffffffffffffffffffffffffffffffffffffffffffffffffffffffffffffff038211156112b6576112b5611440565b5b828201905092915050565b60006112cc826113ee565b91506112d7836113ee565b9250826112e7576112e661146f565b5b828204905092915050565b60006112fd826113ee565b9150611308836113ee565b9250817fffffffffffffffffffffffffffffffffffffffffffffffffffffffffffffffff048311821515161561134157611340611440565b5b828202905092915050565b6000611357826113ee565b9150611362836113ee565b92508282101561137557611374611440565b5b828203905092915050565b600061138b826113ce565b9050919050565b60008115159050919050565b6000819050919050565b60008190506113b682611571565b919050565b60008190506113c982611585565b919050565b600073ffffffffffffffffffffffffffffffffffffffff82169050919050565b6000819050919050565b60006114038261140a565b9050919050565b6000611415826113ce565b9050919050565b6000611427826113a8565b9050919050565b6000611439826113bb565b9050919050565b7f4e487b7100000000000000000000000000000000000000000000000000000000600052601160045260246000fd5b7f4e487b7100000000000000000000000000000000000000000000000000000000600052601260045260246000fd5b7f4e487b7100000000000000000000000000000000000000000000000000000000600052602160045260246000fd5b7f746869732070726f706f73616c20616c72656164792065786973740000000000600082015250565b7f6e6f7420656e6f75676820736861726573000000000000000000000000000000600082015250565b7f616c726561647920766f74656400000000000000000000000000000000000000600082015250565b7f746869732070726f706f73616c20646f6573206e6f7420657869737400000000600082015250565b600381106115825761158161149e565b5b50565b600281106115965761159561149e565b5b50565b6115a281611380565b81146115ad57600080fd5b50565b6115b981611392565b81146115c457600080fd5b50565b6115d08161139e565b81146115db57600080fd5b50565b600281106115eb57600080fd5b50565b6115f7816113ee565b811461160257600080fd5b5056fea2646970667358221220b0ef6077f84ce2fa47c25e64c24f6c8cf0c6af78bf223d40987c586a7335fbdd64736f6c63430008040033",
  "immutableReferences": {},
  "source": "pragma solidity 0.8.4;\n\nimport \"@openzeppelin/contracts/token/ERC20/IERC20.sol\";\n\ninterface DaoInterface {\n    enum Vote {Yes, No}\n    enum Status {Pending, Approved, Rejected}\n\n    struct Proposal {\n        address creator;\n        bytes32 docHash;\n        uint256 creationTimestamp;\n        uint256 yea;\n        uint256 nay;\n        Status status;\n    }\n\n    function deposit(uint256 _amount) external;\n\n    function withdraw(uint256 _amount) external;\n\n    function newProposal(bytes32 _proposalHash) external;\n\n    function vote(bytes32 _proposalHash, Vote _vote) external;\n\n    event Approved(bytes32 _proposalHash);\n    event Rejected(bytes32 _proposalHash);\n    event VoteEvent(address _account, Vote vote);\n}\n\ncontract Dao is DaoInterface {\n    IERC20 public token;\n    uint256 public totalShares;\n    uint256 constant quorumPeriod = 1 weeks;\n    uint256 constant quorumPercentage = 60;\n\n    mapping(bytes32 => Proposal) public proposals;\n    bytes32[] proposalHashes;\n    mapping(address => mapping(bytes32 => bool)) public voted;\n    mapping(address => uint256) public shares;\n\n    constructor(address _token) {\n        token = IERC20(_token);\n    }\n\n    // Modifiers\n    modifier proposalNotExists(bytes32 _proposalHash) {\n        require(\n            proposals[_proposalHash].docHash == bytes32(0),\n            \"this proposal already exist\"\n        );\n        _;\n    }\n\n    modifier proposalExists(bytes32 _proposalHash) {\n        require(\n            proposals[_proposalHash].docHash != bytes32(0),\n            \"this proposal does not exist\"\n        );\n        _;\n    }\n\n    modifier accountHasEnoughShares(uint256 _amount) {\n        require(shares[msg.sender] >= _amount, \"not enough shares\");\n        _;\n    }\n\n    modifier accountNotVoted(bytes32 _proposalHash) {\n        require(voted[msg.sender][_proposalHash] == false, \"already voted\");\n        _;\n    }\n\n    modifier inVotingPeriod(bytes32 _proposalHash) {\n        require(\n            block.timestamp <=\n                proposals[_proposalHash].creationTimestamp + quorumPeriod,\n            \"voting period over\"\n        );\n        _;\n    }\n\n    // Functions\n    function deposit(uint256 _amount) external override {\n        shares[msg.sender] += _amount;\n        totalShares += _amount;\n        token.transferFrom(msg.sender, address(this), _amount);\n    }\n\n    function withdraw(uint256 _amount)\n        external\n        override\n        accountHasEnoughShares(_amount)\n    {\n        shares[msg.sender] -= _amount;\n        totalShares -= _amount;\n        token.transfer(msg.sender, _amount);\n    }\n\n    function newProposal(bytes32 _proposalHash)\n        external\n        override\n        proposalNotExists(_proposalHash)\n    {\n        proposalHashes.push(_proposalHash);\n        proposals[_proposalHash] = Proposal(\n            msg.sender,\n            _proposalHash,\n            block.timestamp,\n            0,\n            0,\n            Status.Pending\n        );\n    }\n\n    function vote(bytes32 _proposalHash, Vote _vote)\n        external\n        override\n        accountNotVoted(_proposalHash)\n        proposalExists(_proposalHash)\n    {\n        Proposal storage proposal = proposals[_proposalHash];\n\n        voted[msg.sender][_proposalHash] = true;\n        if (_vote == Vote.Yes) {\n            proposal.yea += shares[msg.sender];\n            emit VoteEvent(msg.sender, _vote);\n\n            if ((proposal.yea * 100) / totalShares > quorumPercentage) {\n                proposal.status = Status.Approved;\n                emit Approved(_proposalHash);\n            }\n        } else {\n            proposal.nay += shares[msg.sender];\n            if ((proposal.nay * 100) / totalShares > quorumPercentage) {\n                proposal.status = Status.Rejected;\n                emit Rejected(_proposalHash);\n            }\n        }\n    }\n\n    function getProposalHashes() public view returns (bytes32[] memory) {\n        return proposalHashes;\n    }\n\n    function getProposalCount() public view returns (uint256) {\n        return proposalHashes.length;\n    }\n\n    function getProposal(bytes32 _proposalHash)\n        public\n        view\n        returns (\n            address creator,\n            bytes32 docHash,\n            uint256 creationTimestamp,\n            uint256 yea,\n            uint256 nay,\n            Status status\n        )\n    {\n        Proposal storage proposal = proposals[_proposalHash];\n\n        return (\n            proposal.creator,\n            proposal.docHash,\n            proposal.creationTimestamp,\n            proposal.yea,\n            proposal.nay,\n            proposal.status\n        );\n    }\n}\n",
  "sourcePath": "/Users/mertozgun/dev/m2ozgun/dao/contracts/Dao.sol",
  "compiler": {
    "name": "solc",
    "version": "0.8.4+commit.c7e474f2.Emscripten.clang"
  },
  "schemaVersion": "3.4.0",
  "updatedAt": "2021-05-10T06:25:23.088Z",
  "networkType": "ethereum",
  "devdoc": {
    "kind": "dev",
    "methods": {},
    "version": 1
  },
  "userdoc": {
    "kind": "user",
    "methods": {},
    "version": 1
  }
}