{
  "contractName": "Dao",
  "abi": [
    {
      "inputs": [
        {
          "internalType": "address",
          "name": "_token",
          "type": "address"
        }
      ],
      "stateMutability": "nonpayable",
      "type": "constructor"
    },
    {
      "inputs": [
        {
          "internalType": "bytes32",
          "name": "",
          "type": "bytes32"
        }
      ],
      "name": "proposals",
      "outputs": [
        {
          "internalType": "address",
          "name": "creator",
          "type": "address"
        },
        {
          "internalType": "bytes32",
          "name": "docHash",
          "type": "bytes32"
        },
        {
          "internalType": "uint256",
          "name": "creationTimestamp",
          "type": "uint256"
        },
        {
          "internalType": "uint256",
          "name": "yea",
          "type": "uint256"
        },
        {
          "internalType": "uint256",
          "name": "nay",
          "type": "uint256"
        },
        {
          "internalType": "enum DaoInterface.Status",
          "name": "status",
          "type": "uint8"
        }
      ],
      "stateMutability": "view",
      "type": "function",
      "constant": true
    },
    {
      "inputs": [
        {
          "internalType": "address",
          "name": "",
          "type": "address"
        }
      ],
      "name": "shares",
      "outputs": [
        {
          "internalType": "uint256",
          "name": "",
          "type": "uint256"
        }
      ],
      "stateMutability": "view",
      "type": "function",
      "constant": true
    },
    {
      "inputs": [],
      "name": "token",
      "outputs": [
        {
          "internalType": "contract IERC20",
          "name": "",
          "type": "address"
        }
      ],
      "stateMutability": "view",
      "type": "function",
      "constant": true
    },
    {
      "inputs": [],
      "name": "totalShares",
      "outputs": [
        {
          "internalType": "uint256",
          "name": "",
          "type": "uint256"
        }
      ],
      "stateMutability": "view",
      "type": "function",
      "constant": true
    },
    {
      "inputs": [
        {
          "internalType": "address",
          "name": "",
          "type": "address"
        },
        {
          "internalType": "bytes32",
          "name": "",
          "type": "bytes32"
        }
      ],
      "name": "voted",
      "outputs": [
        {
          "internalType": "bool",
          "name": "",
          "type": "bool"
        }
      ],
      "stateMutability": "view",
      "type": "function",
      "constant": true
    },
    {
      "inputs": [
        {
          "internalType": "uint256",
          "name": "_amount",
          "type": "uint256"
        }
      ],
      "name": "deposit",
      "outputs": [],
      "stateMutability": "nonpayable",
      "type": "function"
    },
    {
      "inputs": [
        {
          "internalType": "uint256",
          "name": "_amount",
          "type": "uint256"
        }
      ],
      "name": "withdraw",
      "outputs": [],
      "stateMutability": "nonpayable",
      "type": "function"
    },
    {
      "inputs": [
        {
          "internalType": "bytes32",
          "name": "_proposalHash",
          "type": "bytes32"
        }
      ],
      "name": "newProposal",
      "outputs": [],
      "stateMutability": "nonpayable",
      "type": "function"
    },
    {
      "inputs": [
        {
          "internalType": "bytes32",
          "name": "_proposalHash",
          "type": "bytes32"
        },
        {
          "internalType": "enum DaoInterface.Vote",
          "name": "_vote",
          "type": "uint8"
        }
      ],
      "name": "vote",
      "outputs": [],
      "stateMutability": "nonpayable",
      "type": "function"
    }
  ],
  "bytecode": "0x60806040523480156200001157600080fd5b50604051620013a6380380620013a6833981810160405281019062000037919062000095565b806000806101000a81548173ffffffffffffffffffffffffffffffffffffffff021916908373ffffffffffffffffffffffffffffffffffffffff160217905550506200010f565b6000815190506200008f81620000f5565b92915050565b600060208284031215620000a857600080fd5b6000620000b8848285016200007e565b91505092915050565b6000620000ce82620000d5565b9050919050565b600073ffffffffffffffffffffffffffffffffffffffff82169050919050565b6200010081620000c1565b81146200010c57600080fd5b50565b611287806200011f6000396000f3fe608060405234801561001057600080fd5b50600436106100935760003560e01c8063ac50af5f11610066578063ac50af5f14610137578063b6b55f2514610153578063c9a28cb91461016f578063ce7c2ac21461018b578063fc0c546a146101bb57610093565b80632e1a7d4d1461009857806332ed5b12146100b45780633a98ef39146100e9578063abb7a0df14610107575b600080fd5b6100b260048036038101906100ad9190610c3e565b6101d9565b005b6100ce60048036038101906100c99190610bd9565b61037d565b6040516100e096959493929190610d84565b60405180910390f35b6100f16103e6565b6040516100fe9190610ec4565b60405180910390f35b610121600480360381019061011c9190610b74565b6103ec565b60405161012e9190610e0e565b60405180910390f35b610151600480360381019061014c9190610bd9565b61041b565b005b61016d60048036038101906101689190610c3e565b6105d4565b005b61018960048036038101906101849190610c02565b6106f6565b005b6101a560048036038101906101a09190610b4b565b610aa6565b6040516101b29190610ec4565b60405180910390f35b6101c3610abe565b6040516101d09190610e29565b60405180910390f35b8080600460003373ffffffffffffffffffffffffffffffffffffffff1673ffffffffffffffffffffffffffffffffffffffff16815260200190815260200160002054101561025c576040517f08c379a000000000000000000000000000000000000000000000000000000000815260040161025390610e64565b60405180910390fd5b81600460003373ffffffffffffffffffffffffffffffffffffffff1673ffffffffffffffffffffffffffffffffffffffff16815260200190815260200160002060008282546102ab9190610fd1565b9250508190555081600160008282546102c49190610fd1565b9250508190555060008054906101000a900473ffffffffffffffffffffffffffffffffffffffff1673ffffffffffffffffffffffffffffffffffffffff1663a9059cbb33846040518363ffffffff1660e01b8152600401610326929190610de5565b602060405180830381600087803b15801561034057600080fd5b505af1158015610354573d6000803e3d6000fd5b505050506040513d601f19601f820116820180604052508101906103789190610bb0565b505050565b60026020528060005260406000206000915090508060000160009054906101000a900473ffffffffffffffffffffffffffffffffffffffff16908060010154908060020154908060030154908060040154908060050160009054906101000a900460ff16905086565b60015481565b60036020528160005260406000206020528060005260406000206000915091509054906101000a900460ff1681565b806000801b600260008381526020019081526020016000206001015414610477576040517f08c379a000000000000000000000000000000000000000000000000000000000815260040161046e90610e44565b60405180910390fd5b6040518060c001604052803373ffffffffffffffffffffffffffffffffffffffff1681526020018381526020014281526020016000815260200160008152602001600060028111156104f2577f4e487b7100000000000000000000000000000000000000000000000000000000600052602160045260246000fd5b8152506002600084815260200190815260200160002060008201518160000160006101000a81548173ffffffffffffffffffffffffffffffffffffffff021916908373ffffffffffffffffffffffffffffffffffffffff1602179055506020820151816001015560408201518160020155606082015181600301556080820151816004015560a08201518160050160006101000a81548160ff021916908360028111156105c8577f4e487b7100000000000000000000000000000000000000000000000000000000600052602160045260246000fd5b02179055509050505050565b80600460003373ffffffffffffffffffffffffffffffffffffffff1673ffffffffffffffffffffffffffffffffffffffff16815260200190815260200160002060008282546106239190610ef0565b92505081905550806001600082825461063c9190610ef0565b9250508190555060008054906101000a900473ffffffffffffffffffffffffffffffffffffffff1673ffffffffffffffffffffffffffffffffffffffff166323b872dd3330846040518463ffffffff1660e01b81526004016106a093929190610d4d565b602060405180830381600087803b1580156106ba57600080fd5b505af11580156106ce573d6000803e3d6000fd5b505050506040513d601f19601f820116820180604052508101906106f29190610bb0565b5050565b8160001515600360003373ffffffffffffffffffffffffffffffffffffffff1673ffffffffffffffffffffffffffffffffffffffff168152602001908152602001600020600083815260200190815260200160002060009054906101000a900460ff1615151461079b576040517f08c379a000000000000000000000000000000000000000000000000000000000815260040161079290610e84565b60405180910390fd5b826000801b600260008381526020019081526020016000206001015414156107f8576040517f08c379a00000000000000000000000000000000000000000000000000000000081526004016107ef90610ea4565b60405180910390fd5b60006002600086815260200190815260200160002090506001600360003373ffffffffffffffffffffffffffffffffffffffff1673ffffffffffffffffffffffffffffffffffffffff168152602001908152602001600020600087815260200190815260200160002060006101000a81548160ff021916908315150217905550600060018111156108b2577f4e487b7100000000000000000000000000000000000000000000000000000000600052602160045260246000fd5b8460018111156108eb577f4e487b7100000000000000000000000000000000000000000000000000000000600052602160045260246000fd5b14156109ca57600460003373ffffffffffffffffffffffffffffffffffffffff1673ffffffffffffffffffffffffffffffffffffffff168152602001908152602001600020548160030160008282546109449190610ef0565b92505081905550603c600154606483600301546109619190610f77565b61096b9190610f46565b11156109c55760018160050160006101000a81548160ff021916908360028111156109bf577f4e487b7100000000000000000000000000000000000000000000000000000000600052602160045260246000fd5b02179055505b610a9f565b600460003373ffffffffffffffffffffffffffffffffffffffff1673ffffffffffffffffffffffffffffffffffffffff16815260200190815260200160002054816004016000828254610a1d9190610ef0565b92505081905550603c60015460648360040154610a3a9190610f77565b610a449190610f46565b1115610a9e5760028160050160006101000a81548160ff02191690836002811115610a98577f4e487b7100000000000000000000000000000000000000000000000000000000600052602160045260246000fd5b02179055505b5b5050505050565b60046020528060005260406000206000915090505481565b60008054906101000a900473ffffffffffffffffffffffffffffffffffffffff1681565b600081359050610af1816111e5565b92915050565b600081519050610b06816111fc565b92915050565b600081359050610b1b81611213565b92915050565b600081359050610b308161122a565b92915050565b600081359050610b458161123a565b92915050565b600060208284031215610b5d57600080fd5b6000610b6b84828501610ae2565b91505092915050565b60008060408385031215610b8757600080fd5b6000610b9585828601610ae2565b9250506020610ba685828601610b0c565b9150509250929050565b600060208284031215610bc257600080fd5b6000610bd084828501610af7565b91505092915050565b600060208284031215610beb57600080fd5b6000610bf984828501610b0c565b91505092915050565b60008060408385031215610c1557600080fd5b6000610c2385828601610b0c565b9250506020610c3485828601610b21565b9150509250929050565b600060208284031215610c5057600080fd5b6000610c5e84828501610b36565b91505092915050565b610c7081611005565b82525050565b610c7f81611017565b82525050565b610c8e81611023565b82525050565b610c9d8161106a565b82525050565b610cac8161108e565b82525050565b6000610cbf601b83610edf565b9150610cca8261112d565b602082019050919050565b6000610ce2601183610edf565b9150610ced82611156565b602082019050919050565b6000610d05600d83610edf565b9150610d108261117f565b602082019050919050565b6000610d28601c83610edf565b9150610d33826111a8565b602082019050919050565b610d4781611060565b82525050565b6000606082019050610d626000830186610c67565b610d6f6020830185610c67565b610d7c6040830184610d3e565b949350505050565b600060c082019050610d996000830189610c67565b610da66020830188610c85565b610db36040830187610d3e565b610dc06060830186610d3e565b610dcd6080830185610d3e565b610dda60a0830184610ca3565b979650505050505050565b6000604082019050610dfa6000830185610c67565b610e076020830184610d3e565b9392505050565b6000602082019050610e236000830184610c76565b92915050565b6000602082019050610e3e6000830184610c94565b92915050565b60006020820190508181036000830152610e5d81610cb2565b9050919050565b60006020820190508181036000830152610e7d81610cd5565b9050919050565b60006020820190508181036000830152610e9d81610cf8565b9050919050565b60006020820190508181036000830152610ebd81610d1b565b9050919050565b6000602082019050610ed96000830184610d3e565b92915050565b600082825260208201905092915050565b6000610efb82611060565b9150610f0683611060565b9250827fffffffffffffffffffffffffffffffffffffffffffffffffffffffffffffffff03821115610f3b57610f3a6110a0565b5b828201905092915050565b6000610f5182611060565b9150610f5c83611060565b925082610f6c57610f6b6110cf565b5b828204905092915050565b6000610f8282611060565b9150610f8d83611060565b9250817fffffffffffffffffffffffffffffffffffffffffffffffffffffffffffffffff0483118215151615610fc657610fc56110a0565b5b828202905092915050565b6000610fdc82611060565b9150610fe783611060565b925082821015610ffa57610ff96110a0565b5b828203905092915050565b600061101082611040565b9050919050565b60008115159050919050565b6000819050919050565b600081905061103b826111d1565b919050565b600073ffffffffffffffffffffffffffffffffffffffff82169050919050565b6000819050919050565b60006110758261107c565b9050919050565b600061108782611040565b9050919050565b60006110998261102d565b9050919050565b7f4e487b7100000000000000000000000000000000000000000000000000000000600052601160045260246000fd5b7f4e487b7100000000000000000000000000000000000000000000000000000000600052601260045260246000fd5b7f4e487b7100000000000000000000000000000000000000000000000000000000600052602160045260246000fd5b7f746869732070726f706f73616c20616c72656164792065786973740000000000600082015250565b7f6e6f7420656e6f75676820736861726573000000000000000000000000000000600082015250565b7f616c726561647920766f74656400000000000000000000000000000000000000600082015250565b7f746869732070726f706f73616c20646f6573206e6f7420657869737400000000600082015250565b600381106111e2576111e16110fe565b5b50565b6111ee81611005565b81146111f957600080fd5b50565b61120581611017565b811461121057600080fd5b50565b61121c81611023565b811461122757600080fd5b50565b6002811061123757600080fd5b50565b61124381611060565b811461124e57600080fd5b5056fea26469706673582212200d0615abacfddff8f1f7dc0804163b3cb9bf0f1308d0667c13425b07b762dfb764736f6c63430008040033",
  "immutableReferences": {},
  "source": "pragma solidity 0.8.4;\n\nimport \"@openzeppelin/contracts/token/ERC20/IERC20.sol\";\ninterface DaoInterface {\n    enum Vote {Yes, No}\n    enum Status {Pending, Approved, Rejected}\n\n    struct Proposal {\n        address creator;\n        bytes32 docHash;\n        uint256 creationTimestamp;\n        uint256 yea;\n        uint256 nay;\n        Status status;\n    }\n\n    function deposit(uint256 _amount) external;\n\n    function withdraw(uint256 _amount) external;\n\n    function newProposal(bytes32 _proposalHash) external;\n\n    //function executeProposal(bytes32 _proposalHash) external;\n\n    function vote(bytes32 _proposalHash, Vote _vote) external;\n}\n\ncontract Dao is DaoInterface {\n    IERC20 public token;\n    uint256 public totalShares;\n    uint256 constant quorumPeriod = 1 weeks;\n    uint256 constant quorumPercentage = 60;\n\n    mapping(bytes32 => Proposal) public proposals;\n    mapping(address => mapping(bytes32 => bool)) public voted;\n    mapping(address => uint256) public shares;\n\n    constructor(address _token) {\n        token = IERC20(_token);\n    }\n\n    // Modifiers\n    modifier proposalNotExists(bytes32 _proposalHash) {\n        require(\n            proposals[_proposalHash].docHash == bytes32(0),\n            \"this proposal already exist\"\n        );\n        _;\n    }\n\n    modifier proposalExists(bytes32 _proposalHash) {\n        require(\n            proposals[_proposalHash].docHash != bytes32(0),\n            \"this proposal does not exist\"\n        );\n        _;\n    }\n\n    modifier accountHasEnoughShares(uint256 _amount) {\n        require(shares[msg.sender] >= _amount, \"not enough shares\");\n        _;\n    }\n\n    modifier accountNotVoted(bytes32 _proposalHash) {\n        require(voted[msg.sender][_proposalHash] == false, \"already voted\");\n        _;\n    }\n\n    modifier inVotingPeriod(bytes32 _proposalHash) {\n        require(\n            block.timestamp <=\n                proposals[_proposalHash].creationTimestamp + quorumPeriod,\n            \"voting period over\"\n        );\n        _;\n    }\n\n    // Functions\n    function deposit(uint256 _amount) external override {\n        shares[msg.sender] += _amount;\n        totalShares += _amount;\n        token.transferFrom(msg.sender, address(this), _amount);\n    }\n\n    function withdraw(uint256 _amount)\n        external\n        override\n        accountHasEnoughShares(_amount)\n    {\n        shares[msg.sender] -= _amount;\n        totalShares -= _amount;\n        token.transfer(msg.sender, _amount);\n    }\n\n    function newProposal(bytes32 _proposalHash)\n        external\n        override\n        proposalNotExists(_proposalHash)\n    {\n        proposals[_proposalHash] = Proposal(\n            msg.sender,\n            _proposalHash,\n            block.timestamp,\n            0,\n            0,\n            Status.Pending\n        );\n    }\n\n    function vote(bytes32 _proposalHash, Vote _vote)\n        external\n        override\n        accountNotVoted(_proposalHash)\n        proposalExists(_proposalHash)\n    {\n        Proposal storage proposal = proposals[_proposalHash];\n\n        voted[msg.sender][_proposalHash] = true;\n        if (_vote == Vote.Yes) {\n            proposal.yea += shares[msg.sender];\n            if ((proposal.yea * 100) / totalShares > quorumPercentage) {\n                proposal.status = Status.Approved;\n            }\n        } else {\n            proposal.nay += shares[msg.sender];\n            if ((proposal.nay * 100) / totalShares > quorumPercentage) {\n                proposal.status = Status.Rejected;\n            }\n        }\n    }\n}",
  "sourcePath": "/Users/mertozgun/dev/m2ozgun/dao/contracts/Dao.sol",
  "compiler": {
    "name": "solc",
    "version": "0.8.4+commit.c7e474f2.Emscripten.clang"
  },
  "schemaVersion": "3.4.0",
  "updatedAt": "2021-05-09T15:38:28.727Z",
  "networkType": "ethereum",
  "devdoc": {
    "kind": "dev",
    "methods": {},
    "version": 1
  },
  "userdoc": {
    "kind": "user",
    "methods": {},
    "version": 1
  }
}